:020000040002F8
:10700000D8580020C1730200C9730200CB7302007C
:10701000CD730200CF730200D173020000000000A4
:10702000000000000000000000000000D373020018
:10703000D573020000000000D7730200D97302006C
:107040001D760200DB7302005D780200DB73020034
:10705000DB730200DB73020079750200DB73020050
:10706000DB730200DB730200DB730200DB730200E0
:10707000DB730200DB730200DB730200DB730200D0
:10708000DB73020075760200DB730200DB73020023
:10709000DB730200DB73020085760200DB73020003
:1070A000DB730200DB730200DB730200DB730200A0
:1070B000DB730200DB730200000000000000000030
:1070C000DB730200DB730200DB730200DB73020080
:1070D000DB730200DB730200DB730200DB73020070
:1070E000DB730200DB730200DB73020000000000B0
:1070F00000000000DB73020000000000DB730200F0
:10710000000000000000000000000000000000007F
:10711000000000000000000000000000000000006F
:10712000000000000000000000000000000000005F
:10713000000000000000000000000000000000004F
:10714000000000000000000000000000000000003F
:10715000000000000000000000000000000000002F
:10716000000000000000000000000000000000001F
:10717000000000000000000000000000000000000F
:1071800000000000000000000000000000000000FF
:1071900000000000000000000000000000000000EF
:1071A00000000000000000000000000000000000DF
:1071B00000000000000000000000000000000000CF
:1071C00000000000000000000000000000000000BF
:1071D00000000000000000000000000000000000AF
:1071E000000000000000000000000000000000009F
:1071F000000000000000000000000000000000008F
:10720000DFF80CD000F07AF90048004731C00200E6
:10721000D858002030B450E8012F93B2C4892344D9
:107220008489A34228BF1B1B0489A34202BFBFF36A
:107230002F8F002007E0C3EA020340E80134002C4E
:10724000E9D14FF001000A6030BC704750E8012FCF
:10725000C2EA024240E801210029F7D1704730B468
:1072600050E8022F1FFAA2F3C488A34202BFBFF363
:107270002F8F00200DE0C48923448489A34228BFB6
:107280001B1BC2EA034340E80234002CE8D14FF054
:1072900001000A6030BC704750E8022FC2EA224267
:1072A00040E802210029F7D17047034653E8022F36
:1072B000D988B2EB324F4FF0000017BF92B241EACB
:1072C000014142EA014104E05A68B2EB324F08BF83
:1072D000012043E80212002AE8D1704730B4044686
:1072E00054E8000F0D4644E80053002BF8D1156018
:1072F00030BC704730B4044654E8000F40EA010542
:1073000044E80053002BF7D1156030BC704730B40F
:10731000044654E8000F00EA010544E80053002B3E
:10732000F7D1156030BC704730B4044654E8000F04
:1073300080EA010544E80053002BF7D1156030BC0A
:10734000704730B4044654E8000F00EB010544E8F0
:107350000053002BF7D1156030BC704730B40446A1
:1073600054E8000FA0EB010544E80053002BF7D1CF
:10737000156030BC704770B404464FF0000054E80C
:10738000006F0D68AE4207BF44E80023012044E8C7
:1073900000630E60002B1CBF0020F0E770BC70473C
:1073A00030B4044654E8000F88422CBF451A054605
:1073B00044E80053002BF5D1156030BC7047000045
:1073C0000648804706480047FEE7FEE7FEE7FEE77F
:1073D000FEE7FEE7FEE7FEE7FEE7FEE7897602004E
:1073E000017202002DE9F05F0546002092469B469F
:1073F00088460646814640241BE0284641464746CB
:10740000224600F06BF853465A46C01A914110D3F9
:1074100011461846224600F016F82D1A67EB0108AF
:107420004F4622460120002100F00DF817EB00091D
:107430004E41201EA4F10104DFDC484631462A46B5
:107440004346BDE8F09F202A04DB203A00FA02F10F
:10745000002070479140C2F1200320FA03F3194342
:1074600090407047004870471035030040EA010320
:107470009B0703D009E008C9121F08C0042AFAD2EA
:1074800003E011F8013B00F8013B521EF9D27047AE
:10749000D2B201E000F8012B491EFBD27047002256
:1074A000F6E710B513460A4604461946FFF7F0FF03
:1074B000204610BD421C10F8011B0029FBD1801A88
:1074C000704730B504460020034600E05B1C934241
:1074D00003D2E05CCD5C401BF8D030BD202A04DB39
:1074E000203A21FA02F00021704721FA02F3D0403D
:1074F000C2F120029140084319467047064C074DDF
:1075000006E0E06840F0010394E807009847103473
:10751000AC42F6D3FFF778FEB44B0300D44B030024
:1075200070B58C1810F8015B15F0070301D110F845
:10753000013B2A1106D110F8012B03E010F8016B72
:1075400001F8016B5B1EF9D12B0705D40023521EF5
:107550000DD401F8013BFAE710F8013BCB1A921C5D
:1075600003E013F8015B01F8015B521EF9D5A1425B
:10757000D8D3002070BD00002DE9FC410025DFF8C4
:10758000948000954FF4807601242F460195304673
:1075900005F0C0FF38B1D8F80403204203D03046CC
:1075A00005F0AEFF2543361D64007F1CB6B2082FE0
:1075B000EDD34FF4BE74204605F0ACFF48B1204631
:1075C00005F09EFF45F000456A460221002005F0C7
:1075D000FFFE15F0FF0F16D0012600242E420ED01C
:1075E00008EB8401D1F81005D1F81015C0F305207F
:1075F000094AC1F3014152F8242002B190477600B4
:10760000641C082CEAD3002D02DA684609F038FA27
:10761000BDE8FC81006000400430002070B54FF4EC
:107620008076304605F05BFA114CB50560B1304606
:1076300005F05CFA0120C5F80803607920B9012043
:1076400060712168002088474FF48276304605F04B
:1076500046FA00280AD0304605F048FA0220C5F85C
:1076600008032168BDE870400120084770BD000094
:10767000AC23002002490248091F09680068084736
:107680000024002006F0D0BC70B54FF080520124D9
:10769000D2E94C100023082906D1CD06C5F80C31DB
:1076A000C5F810315E4D2B60082955D15D4D2D6810
:1076B0005D4E35605B4D2D1D2D68361D3560594D75
:1076C00008352D68361D3560564D0C352D68361D34
:1076D0003560544D10352D68361D3560514D1435CB
:1076E0002D68361D35604F4D18352D684E4E2036AD
:1076F00035604C4D1C352D68361D3560494D2035A3
:107700002D68361D3560474D24352D68361D356092
:10771000444D28352D68361D3560424D2C352D6879
:10772000361D35603F4D30352D683F4E4036356053
:107730003C4D34352D68361D35603A4D38352D6851
:10774000361D3560374D3C352D68361D3560354D5D
:1077500040352D68361D3560082904D1050002D159
:10776000334E324D3560082904D1050002D1314E27
:10777000FB253560082908D1050006D192F858622A
:107780002D4A156866F303051560082904D1020027
:1077900002D12A4D8A012A60082906D128480168A9
:1077A000C90702D06FF0010101602648016841F469
:1077B00070010160BFF34F8FBFF36F8F4FF0102147
:1077C000D1F80002002803DBD1F80402002822DAF5
:1077D0001D4A14601D480468002CFCD01224C1F816
:1077E00000420568002DFCD0C1F804420168002960
:1077F000FCD0136001680029FCD0BFF34F8F114803
:107800007C380168124A01F4E06111430160BFF362
:107810004F8F00BFFDE710490E48086070BD0000A3
:10782000380500400404001020C5004048810300D2
:107830008C56004018F50040E40E0040409602408F
:107840000004004088ED00E004E5014000E4014050
:107850000400FA050090D003C0240020014800680D
:1078600000470000B423002002E008C8121F08C12E
:10787000002AFAD170477047002001E001C1121FB1
:10788000002AFBD1704700000121202803DA814043
:107890000548014003E0402802DA2038814009B160
:1078A0000120704700207047FC06FFBD2DE9F8431A
:1078B000804643F2020659B9694608F0A7F9B0427A
:1078C00002D008B100F010FA9DF80000800744D4FF
:1078D0000021404608F0A4F905003ED0112D3CD00F
:1078E0001F482049401AC708022000EB07440D2D0D
:1078F0000AD00B2D1DD0B5421FD11B492046424650
:10790000BDE8F84306F00CB820464246174906F099
:1079100007F81321404676DF00281ED006F036FC1B
:10792000024601B020464346BDE8F04310A105F0F1
:10793000FEBF204642461C49E2E7284606F026FCE8
:107940000246012000EB0740434618A105F0EFFF77
:107950002846BDE8F84300F0C7B9BDE8F883000049
:10796000244C0300E44B0300843D0300103D03005E
:1079700073645F626C655F6761705F646973636F96
:107980006E6E65637428292072657475726E656405
:10799000202573206F6E20636F6E6E5F68616E646A
:1079A0006C652025642E0000D03D03004173736593
:1079B0007274696E672E20706D5F636F6E6E5F7399
:1079C000656375726528292072657475726E6564C9
:1079D000202573206F6E20636F6E6E5F68616E642A
:1079E0006C652025642E000010B560B159B1027895
:1079F0000B785208B2EB530F05D10622401C491CEC
:107A0000FFF75FFD08B1002010BD012010BD800709
:107A100001D00020704701207047C3688B4206D810
:107A200011440069491E814201D80120704700209D
:107A3000704790F82400012801D01F207047EE20E5
:107A4000704710B507220221032001F0F5FB08B1B1
:107A5000072800D1002010BD30B524A2B7B007CA56
:107A600034AB2CAC83E8070000208DF8B00034A9BB
:107A700023180A5C401C5A700D28F9D3AC216846C3
:107A8000FFF70DFD0D2060F30F054FF6FF70ADF809
:107A9000C400CDE9325402208DF8000001200521F8
:107AA0008DF802008DF8031000218DF82D108DF84F
:107AB0007C0031AA8DF8790009922820229040F6A6
:107AC000B83023908DF87D100B4829900B482A90F0
:107AD00069460B4800F031FC08B100F005F90121BE
:107AE000074800F025FC37B030BD0000526F636BD3
:107AF00072696465723530308DE9020037830200A7
:107B00003C25002010B560B10D480E49401AC00850
:107B1000032101EB00400CA105F0FEFE08F006FF7A
:107B200006E000200AF08AFF03210B4800F0CCFC9D
:107B3000002803D0BDE8104000F0D6B810BD00000A
:107B4000944C0300E44B0300457261736520626F3F
:107B50006E647321000000003C25002070B58CB0DD
:107B600015460E4600236C46C3F10F01415CE154FB
:107B70005B1C102BF8D30D2104F11000FFF78FFCD4
:107B80000020C0F10F02315C2244401C1174032814
:107B9000F7D3684646DF0020C0F10F01214491F879
:107BA00020102954401C0328F6D30CB070BD0220CD
:107BB00001F00EBA0149C97800F0B0BE30230020B0
:107BC00070B50024064D06E06868012110F8340005
:107BD00006F050FB641C28788442F5D3002070BD69
:107BE000C0230020F8B516460C4605460A2A01D2E5
:107BF0000720F8BD06F036FC18B906F0F7FB0028A0
:107C0000F7D1134F202113487D603C70BE60FFF711
:107C100046FC0020C7E904000F4E0DE005EBC40050
:107C20003168009181788DF8011000780B4A69461F
:107C300006F06CFB0028DCD1641EE4B2EED2BDE895
:107C4000F84005480021064A001D00F05FB800001A
:107C5000C0230020E03000206C310300DDB10200C1
:107C6000D99F020072B605F001FF00BF05F038FD94
:107C70000028FBD111481249401AC408012000EB2A
:107C8000044010A105F048FE11480068C00700D06C
:107C900000BE022000EB04400EA105F03DFEBFF344
:107CA0004F8F0B48E43801680E4A01F4E06111433C
:107CB0000160BFF34F8F00BFFDE70000944C03004D
:107CC000E44B0300466174616C206572726F720050
:107CD000F0ED00E053797374656D2072657365741F
:107CE000000000000400FA050EB500210091CDE966
:107CF00001106A4644F20100FFF7B4FF0EBD000018
:107D0000014802F0D0B90000E02300203AB1006839
:107D10000129426100D00021016100207047072045
:107D20007047000038B51148082358224168009177
:107D30000F49006804F051FB002815D10D4A69462F
:107D40000D4802F0B5F904000ED101210A4802F0F5
:107D50002AFA0123094A1946074802F07CF9064924
:107D6000012008390870204638BD00007431030036
:107D7000103100208D110300E0230020FFFF7F0061
:107D800070B50446007F0D4608B1002070BDA261A9
:107D900003F00AFA401941F10001C4E90201206927
:107DA00000B125612146BDE8704000200AF092BA7A
:107DB00001460020087701200AF08CBA30B5EFF3B5
:107DC000108172B60D4A9468012324B10370002912
:107DD00000D162B630BD93604FF0E023D3F88051FC
:107DE000074C25401560C3F88041D3F884415460A6
:107DF0005A17C3F8842100220270E8E76831002096
:107E0000FC06FFBD0B498A68002A11D000280FD15B
:107E1000EFF3108072B60B684FF0E022C2F8003129
:107E20004B68C2F8043100228A60002800D162B693
:107E3000704700006831002070B5054608680C46A0
:107E4000411C04D005F035FB206805F095FA606808
:107E5000411C02D0002105F07DFA2968A069C1F813
:107E60002405607D227D29681043C1F86C05D4E9A2
:107E700000122868C0F81425C0F80C15207D0128D0
:107E800014D1A068411C02D0002105F063FAE0681B
:107E9000411C04D005F00DFBE06805F06DFAD4E953
:107EA00002122868C0F80825C0F8101570BD70B51A
:107EB000054608680C46411C04D005F004FB206808
:107EC00005F064FA6068411C02D0002105F04BFA0D
:107ED0002968A069C1F82405607D217D2A680843CE
:107EE000C2F86C05D4E900122868C0F80C15C0F877
:107EF0001425207D012814D1A068411C02D0002146
:107F000005F031FAE068411C04D005F0DCFAE068C5
:107F100005F03CFAD4E902122868C0F80825C0F838
:107F2000101570BD03F050BF2DE9F047814605885C
:107F30004A484FF000088AB001784246284600F0CF
:107F400005FD99F80500400701D4002176E005F50C
:107F50008077B8B205AB0122072107F025FA0400AB
:107F60003F48404A4FF00101A0EB02004FEAD00029
:107F700001EB00460AD0204606F008F902463046DA
:107F80002B46394905F0D3FC214629E0284603F069
:107F90003BFC4FF6FF71044688422BD18A46069877
:107FA00003F09CFB0446504510D00146284603F0E0
:107FB0000BFC2846FFF7FEFDE0B9284609F09CFBC4
:107FC0002846FFF7F7FD0028BFD013E007F0C4FBF9
:107FD0000446504508D1304624A105F09DFC0421FB
:107FE000284609F0B7FBB0E70146284603F0ECFB52
:107FF0004FF00108B8B22246072107F04DFA0700FA
:108000001BD0862F1ED006F0C1F8024630462B4604
:108010002349009405F093FC3946284609F09AFB61
:108020000021484607F0B8F8B8F1000F02D020460A
:1080300003F0D4FB0AB0BDE8F0870121484607F001
:10804000ABF8F7E7142217496846FFF70FFAADF8C7
:108050000250684602F0C8FAEFE700003023002023
:108060002C4C0300E44B0300CC400300436F756CC1
:1080700064206E6F7420616C6C6F63617465206E38
:10808000657720706565725F696420666F7220692C
:108090006E636F6D696E6720626F6E642E00000004
:1080A000E8410300083103002DE9FC47002517884B
:1080B0000646158090F82D001446894630B13A46A0
:1080C0002146484600F068FC051E09D1B0784FF003
:1080D0000C0A18B32088C846001DB84202D9504681
:1080E000BDE8FC87684679DF0028F9D120880321A4
:1080F00008F8001020881921401C80B2208008F860
:1081000000102088401C80B2208000EB0801BDF8E0
:1081100000000AF0AEFA218808442080F07802229C
:10812000C8B1218896F9033001F1030C4846BC45DB
:10813000D5D8425421884FF0010C491C89B22180C6
:1081400000F801C02188491C89B2218009F801305A
:108150002088401C20807068B8B1218890F90030D8
:1081600001F1030C4846BC45B9D8425421880A2283
:10817000491C89B2218042542188491C89B221803E
:1081800009F801302088401C2080308950B1CDE9A9
:1081900000474B460622022106F108000AF0C1FB07
:1081A000051E9DD1308A50B1CDE900474B460722CC
:1081B000032106F110000AF0B4FB051E90D1308BAC
:1081C00050B1CDE900474B461522142106F11800A5
:1081D0000AF0A7FB051E83D1306A30B13B46224628
:1081E000494601F0E2FB051EDBD1706A30B13B4627
:1081F0002246494603F0CCFF051ED2D196F82C004A
:1082000038B13B4622464946304609F0DFFB051EA1
:10821000C7D1307838B13B4622464946304604F053
:1082200045F8051EBDD128465AE718B5044600207A
:10823000ADF8000013466A46204600F006F8002814
:1082400002D0BDF80000204418BD70B5E0B1DAB12D
:10825000002402E0045D2C44A4B2651C8D4206D2C9
:108260001688A642F6D8061976789E42F2D18C423C
:108270000AD2A31C005D9BB200B1401E0004000C9A
:1082800002D01C188C4201D9002070BD138070BD33
:108290007FB516460D46040048D02078F0B355EA65
:1082A000060043D000200090019002900390A5B1F9
:1082B000D4F82004016804F15500814200D1EE3069
:1082C00000902046FFF7B5FBADF80400284601AA50
:1082D0000099FFF7E9FE002824D1A6B1D4F82004C4
:1082E000816804F23120814200D1EE3002902046B4
:1082F000FFF79FFBADF80C00304603AA0299FFF789
:10830000D3FE00280ED19DE80F0004F5826585E8B4
:108310000F002946002204F1540000E004E0C4F8F4
:10832000201472DF04B070BD0820FBE70E20F9E7CF
:1083300080F830107047FFF7D7BC2DE9F0410D00F1
:10834000044606D02CB195F87A000026012803D007
:1083500006E00E20BDE8F08195F89800012821D0B4
:108360004FF00108A6702C2205F17801201DFFF7BF
:108370007DF884F83060D5F8A4006063D5F8A800D3
:10838000A0634FF6FF70A4F8240404F58260C4F8DB
:108390002004C4F82664A4F82A6484F82C642078A5
:1083A00010B104E00720D5E7FF2084F8540004F161
:1083B00055072046C4F81074FFF73BFBA4F81404DB
:1083C00004F2144239462846FFF76EFE0028C1D158
:1083D00004F23120C4F818042046FFF72AFBA4F861
:1083E0001C0404F21C4205F13C00D4F81814FFF7F9
:1083F0005BFE0028AED184F85180208BA4F84800A1
:1084000084F83C80266484F85060606900216064D0
:10841000454604F13C02781E72DF00289AD125708F
:1084200098E710B50288102A1BD0112A20D0262ADE
:108430001DD1007A0C46012801D0022817D1A0785E
:108440000521401CB0FBF1F201FB1201204600F0B7
:108450003BF800280BD0A16B002908D0BDE81040E4
:108460000847C27B012A02D18088A1F8240410BDEC
:108470000C46002184F82E148088B4F82414884215
:10848000F5D120790028F2D10121DFE710B50446AB
:1084900090F8540074DF012084F82E04002084F842
:1084A000300484F850000621204602F03DFB0028ED
:1084B00008D1A178204600F007F810B1A16B01B1F6
:1084C0008847002010BD00002DE9F05F04460078C9
:1084D0000F46F8B18F4890494FF0030A401AC1087F
:1084E0000AEB014081468DA105F016FAA770002520
:1084F000C4F82654A4F82A5484F82C54A0790126F0
:1085000008B1012F09D0E07980B1012F05D0022FE9
:1085100003D00BE00820BDE8F09F616B21B184F827
:108520002D640820884701E084F82D5404F2274187
:1085300000200A5C0AB1304603E0401C0628F8D34C
:1085400000204FF00208012F06D0022F0CD0032F7D
:108550000FD0042F15D110E0A17929B194F824107F
:1085600011B908B130460DE0E17911B108B14046CA
:1085700008E0207A08B1504604E0607A08B104208F
:1085800000E02846A070616B41B1032801D00428A7
:1085900004D1607910B194F82E0498B184F82F5466
:1085A00004F13C0018210746FEF779FF84F83C608F
:1085B00004F12C0007F074FA80B194F82C0084F8D0
:1085C00051000DE048465AA105F0A6F984F8305450
:1085D00084F82F64616B07208847E1E784F85160D5
:1085E00094F8240058B104F1280007F059FA20B19A
:1085F00094F8280084F8520001E084F8526084F86E
:108600005050A27804F2264104F582694FF0060B1F
:10861000052A62D2DFE802F07A030F22410084F8D3
:108620003160C4F82054C4E9101584F83C808020DF
:10863000A4F8480053E084F8318094F824203846A8
:1086400012B10722027001E080F800A0228A828124
:10865000C4F820544160E168B96040E06069B860E6
:10866000208BB88194F824003D4610B184F83CB0CA
:1086700001E084F83C6020460AF01EF950B185F80C
:1086800014800421204602F04FFA30BB052184F803
:10869000311020E084F831A01DE0E069B860208C42
:1086A000B88194F824003D4610B184F83CB001E054
:1086B00084F83C6020460AF0FFF848B185F8148041
:1086C0000421204602F030FA38B984F831B002E0D3
:1086D000042084F83100C4F82094A07878B13A4698
:1086E00004F15400D4F8201472DF00287FF413AF93
:1086F00094F8301094F8540073DF0028F6D1616BC1
:1087000011B194F831008847002004E784F8315013
:10871000F5E70000944C0300E44B030073746172AE
:10872000745F6164766572746973696E67210000B5
:1087300073746172745F77686974656C6973746966
:108740006E67210010B50446012084F82E04002035
:1087500084F8300484F8500003212046FFF7B4FE6B
:1087600010B1A16B01B18847002010BD70B504465F
:1087700090F82F04049E154680B10C480C49401A0D
:10878000C008032101EB00400AA105F0C5F8002054
:1087900084F82F04354303D0012002E0082070BD87
:1087A000002084F83004002070BD0000944C0300C9
:1087B000E44B030057484954454C49535420524513
:1087C000504C59202100000070B5040012D0014621
:1087D0001C221448FEF74AFE1248134D056020681B
:1087E00050B17ADF002806D120680168296040680E
:1087F000686005E00E2070BD0B487BDF0028FAD1D1
:1088000008484FF6FF711438084A20F8041B054940
:10881000343901600021FFF779FA0028EBD00320FA
:1088200070BD0000542C0020842200205128030039
:1088300010B5044600F0A6F8002805D02146BDE892
:108840001040024803F048BE10BD0000802C0020FC
:1088500070B515460E4604460AF03AF8002809D0CD
:10886000054800EB8400C0692A463146BDE87040E7
:1088700002F086B970BD0000702C002010B50446CF
:1088800000F080F8002805D02146BDE810400248DD
:1088900003F022BE10BD0000882C002010B5044655
:1088A00000F070F8002805D02146BDE810400248CD
:1088B00003F012BE10BD0000842C002070B50546E8
:1088C000002400F05FF838B12946044803F004FEA4
:1088D00008B1022400E00124204670BD7C2C002059
:1088E00070B50546002400F04DF838B1294604481B
:1088F00003F0F2FD08B1022400E00124204670BD1F
:10890000782C002010B51821034803F0C0FD18286A
:1089100000D0C0B210BD0000702C002070B505461C
:108920000C46084609F0D4FF60B1284600F02AF84A
:1089300040B10548294600EB8400BDE870401C307A
:1089400003F0CABD002070BD702C002070B5054634
:1089500016460C46084609F0BBFF00280ED02846F4
:1089600000F010F8002809D00548324600EB8400DA
:108970002946BDE870401C3002F0D1B870BD00003F
:10898000702C0020142801D30020704701460148B4
:1089900003F0A2BD742C00207CB5054608880C4667
:1089A0000930904201D90C207CBD68466DDF00285B
:1089B000FAD121880820685420881B21401C80B2ED
:1089C000208029542088401C80B220802844DDF873
:1089D00001100160BDF8051081802088801D80B2E3
:1089E00020809DF80010490800D0012129542088DA
:1089F000401C208000207CBD1FB5044601208DF85E
:108A0000060041F60A00ADF80400494A01A9012018
:108A1000A8DF00287DD122885AB14548801C0090EB
:108A200094F83C3042F62920616800F059FE002895
:108A30007BD122895AB13E480A30009094F83C30EC
:108A400042F62420E16800F04BFE00286DD1228A16
:108A50005AB137481230009094F83C3042F6252045
:108A6000616900F03DFE00285FD1228B5AB1304889
:108A70001A30009094F83C3042F62720E16900F06B
:108A80002FFE002851D1228C5AB129482230009063
:108A900094F83C3042F62620616A00F021FE00285E
:108AA00043D1228D5AB122482A30009094F83C30AC
:108AB00042F62820E16A00F013FE002835D1216B30
:108AC00079B102A809F07CFB1948082232300090E5
:108AD00094F83C3002A942F6232000F001FE002861
:108AE00023D1606B60B112493A310091027901687B
:108AF00094F83C3042F62A2000F0F2FD002814D110
:108B0000A16B89B102A807F0A1FF0948423000908B
:108B100000E00AE094F83C30072202A942F6502017
:108B200000F0DEFD002800D1002004B010BD0000E0
:108B30004E23002038B5054607F0AEFB29882129D1
:108B400043D01EDC2848294A294CA0EB02004FEAFA
:108B5000D0004FF0030202EB0040102919D0112978
:108B60003CD124A104F0D8FE002226496078FFF70A
:108B70006FFE4FF6FF706080BDE83840002009F0BE
:108B8000E7BD3B292BD0562928D1A888132176DFB1
:108B900015E01DA104F0C0FE072000F06FFB08B136
:108BA000FFF7A2F8A98861801A4803F0EDFD08B12B
:108BB000FFF79AF817486188203803F0C1FE0028B3
:108BC0000CD0BDE83840FFF78FB800200090A8888F
:108BD00069468FDF002801D0FFF786F838BDA888E6
:108BE000132176DFEBE70000944C0300E44B030015
:108BF00060220020446973636F6E6E656374656400
:108C000000000000018F0200436F6E6E65637465A3
:108C100064000000F824002010B5124C0188606840
:108C200010290ED011291BD1401E606018D1FEF70B
:108C300008FF002814D02168002911D0BDE8104099
:108C4000084750B907220221032000F0F5FA20B1AD
:108C5000072802D0216801B188476068401C606025
:108C600010BD00007C2200202DE9F04701883B4E1A
:108C700040F2F3194FF6FF7510291BD011293ED091
:108C8000122954D0502946D1C188F289841D9142BD
:108C900041D1618902293ED18688304602F0D6FE54
:108CA000050038D004F10C0000F005F9A8B32946FE
:108CB00030464EE0C17B8788044601292BD1A84667
:108CC000284602F0C3FE050017D02F80002028722E
:108CD000234843464A460168C5F80A104068C5F86B
:108CE0000E0004F1100105F10A0002F073FF687232
:108CF000F08900280FD129462AE0042013E080885B
:108D000002F0A4FE040006D06068FFF751F808B135
:108D100008F004FD2580BDE8F087FFE76868FFF7ED
:108D200047F80028F7D0BDE8F04708F0F7BC87887F
:108D30000646384602F08AFE0400ECD02B464A462E
:108D400006F1080104F10A0002F044FF60722146B6
:108D50003846BDE8F04700F06FBE0000542C0020FC
:108D6000842200202DE9F04F04468688018842487D
:108D700097B0834610290CD0112950D010301929F2
:108D80006AD01A2974D1217A0C09042C4DD30122FE
:108D90004CE0394D083DA868C0430B9069680BA8AA
:108DA00003F0BEFB0B990CA800F0E0FD2C220CA9EF
:108DB0006846FEF75BFB0027E946A84610E000BFC7
:108DC00009EB47005FF00005B0F804A008EB850050
:108DD0005146001D03F040FB6D1C1E2DF6D37F1C79
:108DE0000098B842ECD8142E05D317B00420BDE883
:108DF000F04FFEF779BF3146584603F078FB314615
:108E000008F1040003F073FBE07B022830D117B0B7
:108E10003146BDE8F04F1848001D03F068BB17B09D
:108E20003146BDE8F04F03F017BB0022314601F098
:108E300076FE032C01D3012200E000220E483146C9
:108E40000C3001F06CFE022C01D3012200E0002264
:108E500009483146083006E0217A002908D1617AB4
:108E6000C1F3C002314617B0BDE8F04F01F057BE64
:108E700017B0BDE8F08F0000782C002010B5044634
:108E80000748007800280AD0204602F023FB20463D
:108E900008F068FE2046BDE8104001F0C1BF10BDDB
:108EA000C022002070B504460D460846FEF702FBBE
:108EB0002080656070BD007800F001007047000000
:108EC00010B508780124002815D10B48B1F882307C
:108ED0008268934204D1001D891CFEF7F2FA00B1AA
:108EE00000242146054803F09BFB002803D0BDE881
:108EF0001040FEF7F9BE10BD60220020F8240020CB
:108F000038B50546FFF7ECFC0E4C022817D0694631
:108F1000284607F06FFB08B1FEF7E6FEBDF800003B
:108F2000A0F57F41FF3909D007F05AFB08B1FEF7E1
:108F3000DBFE002261782846FFF708FD38BD0122DC
:108F4000F8E70000602200200149085C704700003B
:108F50009C2F0300084908B5085C0090684604F09F
:108F60004FFAD0F810050099C84010F0010000D069
:108F7000012080F0010008BD9C2F03002DE9FC4179
:108F80000646C0074FF000050ED0104F0024012206
:108F9000385D009500231146019504F065F9641CC5
:108FA000042CF4D300F04EF8B0070DD5074E002482
:108FB000361D0022305D032300951146019504F013
:108FC00053F9641C042CF4D3BDE8FC81982F0300F2
:108FD000094908B5085C0090684604F011FAD0F819
:108FE0000425009B0121994021EA0203C0F80835BD
:108FF0001140C0F80C1508BD982F03000249085C09
:10900000012104F06ABA0000982F03000249085CAD
:10901000002104F062BA0000982F0300084908B547
:10902000085C0090684604F0EBF9D0F8040500995C
:10903000C84010F0010000D0012080F0010008BD00
:10904000982F030010B500242046FFF7D7FF641CBB
:10905000042CF9D310BD10B500242046FFF7D6FF2D
:10906000641C042CF9D310BD10B50246064B4FF01A
:10907000FF3000215C5C944201D1084610BD491CC0
:109080000429F7D310BD00009C2F030070B50C4ECF
:109090000C004FF0000530600BD0012000F06AF8A2
:1090A00008B1022004E0002000F064F800B10B20B9
:1090B0002070706810B9FEF7C4FC0546284670BDE4
:1090C0007C22002010B5002000F012FA08B106281A
:1090D00006D1032000F00CFA08B1062800D10020C8
:1090E00010BD00002DE9F0470D468146FFF7BCFF9B
:1090F0000446042836D2DFF874801B481C4EA8F1C1
:109100000C0725B3012D0ED0022D2BD104EB44000A
:1091100030444578002D25D0B968002922D0284652
:10912000BDE8F047084704EB4401755C0E447178D4
:1091300049B10E4A4FF48041093A8068FEF720FE9B
:1091400008B987F80390B17808F80410E2E780685E
:10915000FEF72EFE04EB4401314418F804008D782C
:10916000A842D7D0BDE8F087A02F030078220020C6
:10917000F02B0020042801D2FFF7ECBE002070473E
:1091800010B5254C0146042960883AD007290ED035
:109190000A2940D1002000F071F808B1FEF7A4FDC3
:1091A000FFF790FF08B1FEF79FFD33DF2DE0A0F53C
:1091B0007F41FF392FD107F009FA38B1207848B143
:1091C0001648FFF7BFFA0020207015E00020FEF7D8
:1091D00099FC11E012481349401AC008032101EB21
:1091E000004011A104F098FB0C48FFF74FF9082844
:1091F00002D008B1FEF778FDBDE81040012009F06B
:10920000A7BA132176DF082805D0002803D0BDE8CF
:109210001040FEF769BD10BD602200203C250020F3
:10922000944C0300E44B030057484954454C4953C0
:1092300054204F464600000070B50023042810D289
:109240000D4D00EB4004012A02D101290CD000226F
:10925000094E00EB4000304461B1012906D00229DB
:1092600006D00723184670BD0E30C2B22A55F9E762
:109270004270F7E78270F5E7F02B0020044A0146C0
:1092800000201279D20702D0084600F04DB870478E
:109290006C22002070B506461E480024C0E901611A
:1092A000B00720D50025012211462846FFF7C4FF4C
:1092B0006D1C0446042D02D2002CF4D013E094B9A6
:1092C00040F2333204211448FEF78CFC04000AD12A
:1092D000FEF776FC040006D10F48104A0021001F5B
:1092E000FEF714FD0446F00712D00120FFF746FEFA
:1092F00074B909480A4A00210C38FEF707FD04003A
:1093000006D10548074A01210838FEF7FFFC04464C
:10931000204670BD6C220020AC2F0300FD9502009A
:1093200069BC0200AF7B02002DE9F05F6E4C054680
:1093300000266078B34618B184F801B002F07CFCD6
:109340006A4F4FF47A694FF4C87A4FF00108182D2C
:109350004DD2DFE805F00C1313384D5A6A6F737C59
:10936000737CC68585858585B4B7BABDC6C602F04F
:1093700063FC3868FEF71CFD06465DE00020FFF741
:109380004DFE00284FF0000008D0FFF737FE022DF9
:1093900002D14FF4E16008E0484606E0FFF736FEF0
:1093A000022D01D1C82000E05046410CC0034FF40B
:1093B0007A72801841F10001257052000023FEF7F7
:1093C00011F801460EE00020FFF728FE00284FF0BC
:1093D000000002D0FFF712FE01E0FFF717FE257034
:1093E00040F2666100223868FEF7CAFC064663E078
:1093F0000020FFF713FE00284FF0000002D0FFF717
:10940000FDFDC9E7FFF702FECEE70020FFF706FEED
:1094100000284FF0000002D0FFF7F0FD01E0FFF759
:10942000F5FD257040F6CD41DCE70020FFF7D0FDCB
:10943000257008E0002051E025703DE084F80180AF
:109440000120FFF7C5FD002240F26661CBE784F8FA
:1094500001800120FFF7BCFD00224FF40051C2E75C
:109460007868FEF7A5FC0646D5F1110000D02EB1B4
:109470000220FFF7C3FD84F802B01DE0012816D9D1
:1094800080B2C8214843C117C90341EA5041C00313
:109490004FF47A72801841F1000152000023FDF769
:1094A000A1FF014600227868FEF76AFC064602200A
:1094B000FFF7ACFD84F802803046BDE8F09F02F073
:1094C000BBFBB9E702F0B8FBB4E702F0B5FB04E080
:1094D00002F0B2FB0020FFF799FD0120FFF796FD97
:1094E000AAE7FFF7B8FDA7E76C220020A02F030032
:1094F000012109F07DBA00002DE9F84F0546861CD0
:1095000000208DF8000091460F464FF0010A684692
:10951000FEF754FC1B4C04F21C4860683860D4E928
:109520000101194F401A3968081A0EE0012140461E
:1095300002F0F0FF02F02AFD0146404602F0EAFF89
:10954000D4E90101401A3968081A401C8642EDD856
:10955000B9F1000F03D0052065F3891002E0062061
:1095600065F39F5061683A68114004EB8101C8605F
:109570006068304460609DF80000FEF743FC504690
:10958000BDE8F88FB83400206824002070B50D467F
:1095900004460A2902D10D21FFF7F8FFA0682268CE
:1095A000411CA1601554D4E90101814204D3204635
:1095B000BDE8704003F01DBB70BD00000448816829
:1095C0004068814201D101207047002070470000AF
:1095D000B8340020034630B50748002104784268BB
:1095E00006E000BF02EBC10005789D4203D0491C94
:1095F000A142F7DB002030BDC0230020007802210B
:10960000FFF770BD1CB5044602F0FEF800236A4661
:10961000092106F00DF8052805D1034801224179FA
:109620002046FFF793F91CBD8C2200201CB5044690
:109630000020009042F6A620ADF8000001208DF831
:109640000200084801AA6946006801902046A0DF90
:10965000002805D10448012281792046FFF776F9D8
:109660001CBD0000CC2F03008C22002005494FF0C8
:10967000FF32082841F8202002D3084480F85820FF
:109680007047000004300020F0B54FF0FF3512B1F4
:109690000023082601E008230C260C4C05E000BF3F
:1096A00054F823707F1C04D05B1CB342F8D32846C7
:1096B000F0BD26185DB286F8305044F82310002A19
:1096C000F5D1E11881F85800F1E7000004300020DE
:1096D0000249084490F9300070470000043000202F
:1096E0002DE9F04188B01E46DDF8388014460D00A3
:1096F000074602D10020FEF7F7FA14B90020FEF762
:10970000F3FA20216846FDF7CAFE9DF80D00ADF87A
:10971000044040F002008DF80D000848ADF80070DC
:10972000ADF8064002958DF8116042466946008802
:1097300000F006F808B0BDE8F08100004E230020DC
:109740002DE9F0438146887891B090460C4600B9E7
:1097500001208DF83E002088ADF83C0000250095E2
:10976000607C694608F0E6F96E46A07C711C08F042
:10977000E1F9E07B00289DF8020002D040F00800EB
:1097800001E020F008008DF80200217C11B140F0CA
:10979000100001E020F010008DF80200217B11B1D3
:1097A00040F0010001E020F001008DF80200217D71
:1097B00009B1022100E0012161F342008DF80200AD
:1097C0001C2102A8FDF76BFE607BC10601D4800658
:1097D00017D50E950EAFE07C791C08F0ABF99DF81B
:1097E0003800079720F00F00401C20F0F0001030E8
:1097F0008DF838009DF83A0020F00600801C8DF8A6
:109800003A00607B8DF80800A07B8DF809001421D8
:1098100009A8FDF744FE0FA8CDE90906A088ADF818
:109820003000A06820B1E088ADF82C00A0680D9051
:10983000A06998B301950088ADF81000A06901AD4A
:1098400001A94088ADF81200A06940680695039010
:10985000A069007B08F06EF9A069691C407B08F0E4
:1098600069F9A069807A00289DF8060002D040F0CE
:10987000080001E020F008008DF80600A169C97A0F
:1098800011B140F0100001E020F010008DF806004A
:10989000A169097A19B140F0010002E00DE020F061
:1098A00001008DF80600A169897B09B1022100E061
:1098B000012161F342008DF80600E06900B10590D6
:1098C000434609AA02A94846AADF11B0BDE8F083C1
:1098D00070B504464FF6FF750A462846AC4209D1DA
:1098E0004FF480742146104602F0D1FD80B2A042B0
:1098F0000BD070BDFF2CFCD82146104602F0B7FDFE
:1099000090F0010F01D0204670BD284670BD0000C8
:1099100070B5084C050009D010342168002907D023
:1099200008682060496828468847F6E70834F4E765
:1099300070BD0000F02F0020054A012120B1012850
:1099400005D19170FFF7E4BF51700020FAE770472E
:10995000F02F002010B5D0E90234D1E90220D11A4D
:10996000A04101D3012010BD002010BD73B58CB003
:109970000646002000900D9880B100246D462146D7
:109980000DA802F0A9FD30B1009805EB40008480DD
:109990000098401C0090641C142CF0D32C226946C3
:1099A0003046FDF763FD0EB070BD2DE9F04117881C
:1099B0000646B81D14460D46984202D90C20BDE853
:1099C000F0813188072206290AD34FF4486C4FF6FC
:1099D000FF73614501D9994202D17088062801D2EE
:1099E0001046ECE7604501D99842F9D1994203D07D
:1099F000984201D08142F3D80520E85520881221F1
:109A0000401C80B2208029542088401C80B22080D5
:109A10004119308808F02DFE2188084480B220804A
:109A20004119708808F025FE218808442080002014
:109A3000C5E7FEF759B9000038B54A7A0F4B62B155
:109A400000220A725969002906D001228DF80020EF
:109A5000ADF802006846884738BD0A7A62B19B6853
:109A60004C68024619462046FEF78AF90028F3D0D2
:109A7000BDE8384007F052BE5B68F1E7542C002087
:109A8000F0B585B016460F4604461D4614220B4914
:109A90006846FDF7EBFC0A488DF80870ADF8024007
:109AA000ADF80A608DF80C50017800222046FEF7D0
:109AB0004DFF684600F098FD05B0F0BD1C31030075
:109AC0003023002070B5104E05460C46307848B95A
:109AD0000E4A00210E48FEF719F908B1FEF704F905
:109AE000012030700A48002265F30F0264F3174228
:109AF0004FF480310068FEF743F9002803D0BDE839
:109B00007040FEF7F1B870BDD0220020C99D020060
:109B1000C430030070B50446A2B000260D4684F898
:109B20002C6009780C30032923D0062924D0092978
:109B30001DD100788006002819DA6068F8B1842108
:109B40006846FDF7ACFC8DF80060B5F88200ADF812
:109B50008200B5F88220A91C0DF10200FDF786FCF9
:109B6000022084F82C00626869462046904722B0A3
:109B700070BD00780007DEE700788007DBE7012092
:109B800084F82C00F3E710B5134609B1802901D9F8
:109B9000092010BD10F8012B1A70491E8AB2014627
:109BA000A3F88220981CFDF761FC002010BD03295A
:109BB00005D0062905D0092905D1816A0847016A1F
:109BC000FCE7416AFAE7704770B51E4613460C463B
:109BD0000546324619462046FFF7D5FF1E491F4A63
:109BE000891AC908012202EB014430B120461CA1A8
:109BF00003F092FE40F2811070BD3078032804D04B
:109C0000062807D009280BD111E0287B410713D47F
:109C1000000703E0287BC1070ED1800700280BDB7B
:109C2000204619A103F078FE4FF4C07070BD287B68
:109C3000C10601D48006F1E731462846FFF76AFFE6
:109C400095F82C000028F1D0204619A103F064FEFD
:109C50004FF4847070BD0000FC4B0300E44B030024
:109C6000436F6E74726F6C20706F696E74207772C0
:109C70006974653A204F7065726174696F6E206611
:109C800061696C65642E0000436F6E74726F6C20A6
:109C9000706F696E742077726974653A20496E76C8
:109CA000616C6964206F7020636F64652E00000032
:109CB000436F6E74726F6C20706F696E74206C6F7E
:109CC0006E672077726974653A20496E76616C69B7
:109CD0006420617574682E0070B588B00646002057
:109CE00005900690ADF81410ADF816100190029092
:109CF00001AA05A9304690DF050021D004F046FAFC
:109D00000346114811493246401AC108012000EBB0
:109D1000014004460E4903F00AFEBDF8042012B9C2
:109D2000BDF8060028B1BDF80630204609A103F0B1
:109D3000FEFDBDF808201AB12046164903F0F0FDDB
:109D400008B0284670BD0000044C0300E44B03003B
:109D500044390300546865207265717565737465D4
:109D6000642054582F5258207061636B6574206CC6
:109D7000656E67746820697320746F6F206C6F6EF6
:109D8000672062792025752F2575206F63746574AF
:109D9000732E00009039030070B504460948012174
:109DA00002F0D3FBBFF35F8F0025002808D12046C7
:109DB00002F066F8002803D1BFF35F8F0148056009
:109DC00070BD000098220020C0F3074180B2FDF76B
:109DD0006DBD00001048114938B5401AC008032174
:109DE00001EB00400EA103F097FD4FF6FF752846EA
:109DF0000BE0694605F0F8FE08B1FDF775FF00219C
:109E0000BDF80000FFF77CF8204606F03FFB044653
:109E1000A842EED138BD0000944C0300E44B03008F
:109E2000436C69656E7420726571756573746564E1
:109E3000207468617420616C6C20626F6E647320A2
:109E400062652064656C657465640000F8B506465B
:109E500011481249401AC008032101EB004010A12B
:109E600003F05AFD4FF6FF7528460EE0694605F0EF
:109E7000BBFE08B1FDF738FF7188BDF800008142D4
:109E800002D00021FFF73CF8204606F0FFFA044616
:109E9000A842EBD1F8BD0000944C0300E44B030052
:109EA000436C69656E742072657175657374656461
:109EB000207468617420616C6C20626F6E64732022
:109EC0006578636570742063757272656E74206264
:109ED0006F6E642062652064656C65746564000063
:109EE0002DE9FF410C4620B14FF4064004B0BDE817
:109EF000F0812079002748F2096538B141F61D56F6
:109F000001281BD0022826D0681DEFE7022020710F
:109F100002970397E0680190694601A807F04CF8A2
:109F200050B102988188E18000882081BDF800103E
:109F3000029807F0BFF8D9E72846D7E70A4B6A46E8
:109F40000021A01D06F0F0FF38B1074918398F61D4
:109F5000CF61A842CAD13046C8E70348818801983A
:109F600007F0A8F8F5E700002024002010B504460B
:109F700008480949401AC008032101EB004007A125
:109F800003F0CAFC1349608801224978BDE81040FB
:109F9000FEF7DCBC944C0300E44B0300436C6965A2
:109FA0006E74207265717565737465642074686180
:109FB0007420626F6E6420746F2063757272656EB8
:109FC00074206465766963652064656C6574656496
:109FD000000000006022002070B500240F4D10E04A
:109FE000686800EBC406307804F0F8F9717801294C
:109FF00001D0012100E000214140307800F048FA12
:10A00000641C28788442EBDBD5E90401084303D0C3
:10A01000BDE8704008F07AB970BD0000C023002090
:10A0200010B50021024802F090FA80F3100010BD34
:10A03000D43800204FF480328A400168C1F84823A8
:10A040000068C0F8082370474FF4A07202EB81014A
:10A0500089B200F08DBA2DE9F04105460E464FF465
:10A06000A07000EB860081B228684FF48034B440C1
:10A07000984622F07F47C0F808432868C0F8484354
:10A08000286803F017FE286800EB8600C0F84075CA
:10A090002868C0F84443B8F1000F02D02868C0F81F
:10A0A0000443BDE8F0810068D0F804057047000063
:10A0B00070B54379234C44F823204279231D03EBE8
:10A0C000C202224C1579204A121BD4082DB1082552
:10A0D000022000EB04401EA130E005680A88C5F8A4
:10A0E000082590F904208978002A4FEA411104DB01
:10A0F00002F1E02282F8001405E002F00F0202F102
:10A10000E02282F8141D90F904100122002909DBD5
:10A1100001F01F0502FA05F54909890001F1E02166
:10A12000C1F800514179002503EBC1010A71417961
:10A1300043F83100032000EB04400EA103F0ECFBD8
:10A14000284670BDFC230020744C0300E44B030040
:10A1500052544320696E7374616E636520616C7242
:10A160006561647920696E697469616C697A656496
:10A170002E0000005254433A20696E697469616C84
:10A18000697A65642E00000090F90400002809DB5C
:10A1900000F01F02012191404009800000F1E02001
:10A1A000C0F8001270470A46022100F067B94FF468
:10A1B000827100F0DDB9006801210160704700681C
:10A1C0000121416070472DE9F05F07460C464FF4CE
:10A1D000A07000EB84001FFA80FA38684FF48036D4
:10A1E000A6409B4622F07F45C0F848633868C0F817
:10A1F00008633868D0F8048500EB8402D2F84095F3
:10A20000C2F840855146386803F054FDA9EB0800B8
:10A2100020F07F40012806D1102004F023F8514699
:10A22000386803F047FD3868D0F80485C0F8446307
:10A23000A5EB080121F07F413868012900EB84007B
:10A2400010D0C0F840553868D0F804156FF07F4C36
:10A250006A1A521E22F07F42ACEB0B03934217D3D3
:10A2600062B118E06D1CC0F84055102003F0FAFFF1
:10A270003868D0F8040540450AD10CE000EB8400B2
:10A280006D1CC0F840553868D0F80405884202D0EB
:10A290000D20BDE8F09F01223146384600F0EEF86F
:10A2A0000020F6E713460A460021FFF7E9BB00004D
:10A2B0002DE9F843104D0F4680461E4691466946EB
:10A2C000286802F09DF8040014D01C21FDF7E7F87F
:10A2D00001202071C4F81490380BC4F80080C4E940
:10A2E00002606946286802F0ACF806F07FFD0020A5
:10A2F000BDE8F8830420FBE72032030010B50378A3
:10A300000022072B06D2DFE803F0050406102029FF
:10A3100030000A7010BD01230B7003898B81838884
:10A32000CB81C06888600A7410BD02220A7002895D
:10A330008A818288CA81C2688A60807D062802D0AC
:10A340000020087410BD0120FBE703220A70C288B8
:10A350008A810289CA81C068886010BD04230B709D
:10A36000C0888881CA818A6010BD0520087010BD30
:10A3700070B5064D0646002455F8241009B1304644
:10A380008847641C042CF7D370BD00009031002076
:10A3900030B50446006887B00D46806800281FD09D
:10A3A00018216846FDF77BF80195A0680590207993
:10A3B00010B1012810D107E001208DF800002069BC
:10A3C0000290E068039005E002208DF80000E0684C
:10A3D000000302906069049020688168684688479D
:10A3E00007B030BDF0B585B017460C0005463AD031
:10A3F000112C38D0082C36D01C481D49401AC608EC
:10A400000D2C11D0204603F0C1FE0246012000EBC6
:10A4100006402B46174903F08AFA2A460721684668
:10A4200001F0A2FF02941BE0022000EB06402A4646
:10A43000114903F075FA2A460321684601F094FF9A
:10A4400027B13878C00701D0012000E002208DF844
:10A45000080000208DF80C0041F20110ADF80A0050
:10A46000684600F0CFF805B0F0BD0000344C0300A2
:10A47000E44B0300B4430300A44203000368C3F8A1
:10A480004413002A02D00068C0F80413704700008B
:10A490002DE9F84F0E463449804601EB5001C007C4
:10A4A000097801D00F0901E001F00F074FF0000912
:10A4B000424601204946FCF7C6FFDFF8B0A004463B
:10A4C0000D46052F4ED2DFE807F003161B282C009F
:10A4D000002E47D00121404607F0DAFD8DF80090AC
:10A4E0006846FDF76BFC5046D0E904120C43154357
:10A4F000CAE9044532E00EB1022114E0002112E065
:10A500004EB10321404607F0C3FD4046BDE8F84F79
:10A51000012108F0F6B9012105E0002E22D1042125
:10A5200001E02EB103214046BDE8F84F07F0B0BD71
:10A530000021404607F0ACFD0021404608F0E1F95B
:10A540008DF800906846FDF739FC5046E243D0E9AB
:10A5500004341A4024EA0501CAE904219DF80000E8
:10A56000FDF750FCBDE8F88FE0300020C02300204C
:10A5700010B5006842581AB103F09CFB012010BDD1
:10A58000002010BD10B50446408801F03DF9A080C0
:10A59000024801682046BDE8104008479422002088
:10A5A00010B50446808801F003F860800248016815
:10A5B0002046BDE810400847A42200202DE9F041C4
:10A5C00007460024064E074D05E000BF56F824104C
:10A5D00038468847641CE8788442F7DBBDE8F081A0
:10A5E000842F0020C022002010B50446408801F0CE
:10A5F0000BF9A080024801682046BDE810400847DA
:10A60000DC300300014909680847000058310300A5
:10A6100070B586B0044614216846FCF740FFA08957
:10A620000125A0F54040ADF8040020782F4E062803
:10A6300033D2DFE800F0320303032C4AA08900F094
:10A6400052FA30B9E08943F6FE71A0F540408842E5
:10A6500023D8A07B8DF80800207803280FD0002095
:10A660008DF80900A0680390606850B109208DF84A
:10A67000000060680490684604F02AFF0DE00120A5
:10A68000EEE708208DF800008DF81050F3E7A08960
:10A6900000F029FA08B1E08930B17078002801D0C3
:10A6A00005F06EF806B070BD606830B10B208DF813
:10A6B0000000606802907570DDE70A208DF80000E8
:10A6C000BDF8040005F000F9F5E7606848B1142012
:10A6D0008DF80000606802904FF6FF70ADF804003E
:10A6E000C9E713208DF80000F6E70000AC22002037
:10A6F00038B504460F480078B0B1A4F57F40FF3864
:10A700000FD0684606F0A2FA88B105210170012138
:10A710000171C480684606F0A7FA06F059FB0020D4
:10A7200038BD48F2036038BD48F2016038BD48F2D8
:10A73000076038BD282400200D4808B5007888B18E
:10A74000684606F083FA80B106210170684606F07B
:10A750008BFA0848017809B10121017306F038FB32
:10A76000002008BD48F2016008BD48F2076008BD3E
:10A770002824002054320020F0B587B01421684608
:10A78000FCF78DFE304C207818B16846FFF7F0FDDD
:10A7900057E0201D01F0BBFE98BB40F6F870016841
:10A7A000481C02D14FF0102041694FF080500269DF
:10A7B00040694B1C01D100FB02F1244800220161D9
:10A7C000A1F54051C160224902F0A8FB002823D125
:10A7D00021481C238C221F49006801F0FEFD04F073
:10A7E00003FC050016D0022D14D000270126062DEB
:10A7F00014D005A806F02AFA98B106700C2D1BD2C9
:10A8000000E01EE0DFE805F0181018101817181700
:10A810001812141248F20A6007B0F0BD2670676083
:10A82000B3E748F20760F7E7077105E0032100E0AE
:10A830000221017100E0067105A806F015FA06F084
:10A84000C7FA0020E8E7000028240020C4240020E4
:10A8500030320300A03100209831030038B50400E5
:10A8600014D0694606F0A8FBB0B1BDF8000000EBBB
:10A8700080010B4800EB8100C16851B1A17A41B160
:10A88000C168491EC1600020A07238BD48F2046052
:10A8900038BD48F2056038BD48F2096038BD000097
:10A8A0002C3200201FB501A9684606F03DFB04B01C
:10A8B00010BD07B513460A466946002006F034FB72
:10A8C0000EBD07B513460A460021684606F02CFB6C
:10A8D0000EBD20B119B1006808600020704748F231
:10A8E00004607047F8B50D46040018D0BDB1694644
:10A8F00006F062FBB0B1BDF800000C4900EB80002F
:10A9000001EB800001210C30666801F003FE2E602F
:10A9100060680C3068600120A0720020F8BD48F229
:10A920000460F8BD48F20960F8BD00002C32002038
:10A9300018B10323002208F0FDB948F20460704703
:10A940000223002208F0F6B9094910B50A69042A61
:10A950000AD0084A096942F821000548012110304F
:10A9600001F0D8FD002010BD48F20B6010BD0000C2
:10A9700008240020903100202DE9F84F0446244897
:10A980000078D8B1F4B112212046FCF788FD0320ED
:10A99000DFF880902080002504F1100804F10E0AF1
:10A9A00005EB850109EB810630897189084487B27E
:10A9B000706804F0A3FA032807D009E048F20160A8
:10A9C000BDE8F88F48F20460FAE72088401E208036
:10A9D0006088F1680844608020897189084420817A
:10A9E000608938446081C7F58060A18980B2814266
:10A9F00000D2A0815346A21D211D2846CDF800801B
:10AA000006F076FB6D1CADB2022DC9D30020D7E74E
:10AA1000282400202C32002070B5047B05468AB023
:10AA20000E46A00703D4A00601D4200703D5306842
:10AA3000F0B3200701D4600701D53069C0B3E00747
:10AA400001D1A00701D5706990B3E00601D4A0063A
:10AA500001D5B06960B30023A00701D54FF40063AE
:10AA6000A00601D543F40033E00601D543F480335A
:10AA7000E00701D043F48063200701D543F02003B1
:10AA8000600701D543F010038DF82030180A8DF8C7
:10AA90002100180C8DF82200032420216846FCF7C1
:10AAA000FEFC42F6A520ADF800009DF80D0000E088
:10AAB00017E040F002008DF80D00ADF8044008A842
:10AAC0000290ADF80640707A8DF8110000208DF8E4
:10AAD0001200288805F10E026946FEF731FE0AB021
:10AAE00070BD0E20FBE743F6FE71A0F540408842A2
:10AAF00001D8012070470020704710B50446007847
:10AB0000182802D1FDF7FEFE207010BD10B50446D6
:10AB10000078182802D1FDF7F5FE207010BD0AB1AB
:10AB200001F0E5BC01F098BC70B50D460446B0F8E4
:10AB30001414D0F810040122FDF777FB00B1057062
:10AB400004F13C0204F5826104F1540072DF70BD2F
:10AB500070B5134600220546112900D10122074C89
:10AB600033B12179FDF7F2FE00226178284600E03A
:10AB70006178BDE87040FDF7E9BE00003823002091
:10AB8000F7B517460E0011D00098002560B10024DB
:10AB90002146684601F0A0FC18B1A0B23946B04782
:10ABA0006D1C641C142CF3D32846FEBD0020FEBD92
:10ABB000406806F06BB800000EB516A19DF80800BD
:10ABC00020F00F00401C20F0F00010308DF808003D
:10ABD000052202A87CDF08B1FDF786F840F281402B
:10ABE00078DF08B1FDF780F8002000900721019080
:10ABF000ADF800104FF4C871ADF80400ADF80210C4
:10AC0000ADF8061068467ADF002801D0FDF76CF831
:10AC10000EBD0000454231303000000070B510B16B
:10AC20004FF4064070BD1C4C0025207B08B12573F5
:10AC300001E000F0A5F8207808282AD2DFE800F02B
:10AC40002904080C10291422BDE8704000F026B831
:10AC5000BDE8704000F082B8BDE8704000F064B814
:10AC6000BDE8704000F040B80620207060880A49B6
:10AC700000EB8000283901EB80004068BDE870409F
:10AC800004F092B9072020706560BDE8704004F0C0
:10AC900099B948F20E6070BD543200201149F0B4E9
:10ACA0008A1C00200346A1F128050C18A67A4EB193
:10ACB000A37200EB800405EB8404E66816B9247CDB
:10ACC000012C0AD0401C80B20228EED30B704B80BE
:10ACD0004B60F0BC41F61D5070471080F0BC00F096
:10ACE0003DB80000543200200C48418801EB81023D
:10ACF000A0F1280101EB8201CA6852B1052101705F
:10AD0000074802218180016800230122054802F0E2
:10AD100069B8042202704968F6E700005432002046
:10AD200030240020C424002038B50A4908480324F0
:10AD30000B684268898803EB810153880470DB1C2F
:10AD400000201B0400909B0B034802F09FF938BDC4
:10AD50005432002030240020C4240020074910B5BC
:10AD60004888091D06F078F918B1BDE81040FFF7D2
:10AD7000DBBFBDE81040FFF7B7BF00005432002032
:10AD800070B5194C0121207808281AD2DFE800F0AC
:10AD90000419191C252929182089134A401C2081CF
:10ADA000002060802073283A00EB800312F82330E3
:10ADB00043B100232518401C80B2AB720228F3D3A4
:10ADC000217070BD0123F5E76068084940888A88D2
:10ADD000C01C10448880022004E000F009F806201E
:10ADE00000E00720207070BD543200203024002085
:10ADF0000A4909484988026801EB81030749283953
:10AE000001EB83014B6803604A6082880A81022259
:10AE100082800020087470473024002054320020C3
:10AE20002DE9F043064680883288DFF85C8185B0E2
:10AE30000746502A37D010DC5449554B06F10A0515
:10AE4000A1EB03014FEAD1014FF0020303EB0144F0
:10AE5000352A3AD0362A07D168E0522A02D0542A3D
:10AE6000F9D102E000F0B0FF82E0142249496846BF
:10AE7000FCF7FCFAADF80270384600F0C5FCADF8FE
:10AE8000040000F0C9F90022444698F8041038463E
:10AE9000FDF75CFD0022E1783846FDF757FD684676
:10AEA000FFF770FB64E0307B012861D1B07A0128A4
:10AEB0005ED13089A0F52451023959D1012138469B
:10AEC00000F0D6FF07F0ACFC52E098F80610FDF752
:10AED00025FD00284CD0002298F806103846FDF7D2
:10AEE00035FDF288B2F5857F17D012B120462AA130
:10AEF0000BE02A88012A03D0204636A102F010FD7B
:10AF00006A88012A04D0204641A102F009FD04E02C
:10AF1000A98800223846A1DF08B1002125E00122DE
:10AF200098F807103846FDF711FD21E04FF00009B1
:10AF300098F80710FDF7F2FCD0B1002298F807103E
:10AF40003846FDF703FDF28812B1204612A104E055
:10AF5000AA88012A04D020462DA102F0E1FC03E0DA
:10AF6000A87900B1012081464946384607F0F2F839
:10AF70000022364998F80200FDF76AFC05B0BDE8EA
:10AF8000F04306F01BBC00008C220020E44B0300C1
:10AF9000E44B030024300300556E657870656374DC
:10AFA000656420474154542073746174757320772D
:10AFB00068696C652067657474696E6720434152E7
:10AFC00020636861722076616C75653A203078255F
:10AFD000780000004D756C7469706C6520282564DC
:10AFE000292043415220636861726163746572690C
:10AFF000737469637320666F756E642C2075736952
:10B000006E67207468652066697273742E00000094
:10B01000556E6578706563746564204341522063A2
:10B0200068617261637465726973746963207661C3
:10B030006C7565206C656E67746820282564292C02
:10B040002073746F726520302E000000257F02008F
:10B0500070B504460078002814D1608800F0B4FE72
:10B060006588284600F09AF928B107480122C1787E
:10B070002846FDF76BFC6088FEF7C4FABDE8704017
:10B0800007F0CEBB70BD00008C22002070B5204CB4
:10B0900000252570FDF736FC6070FDF733FCA070CD
:10B0A000FDF730FCE070FDF72DFC2071FDF72AFC68
:10B0B0006071FDF727FCA071FDF724FCE071627858
:10B0C0000121182A18D0A278182A15D0E278182A57
:10B0D00012D02279182A0FD06279182A0CD0A279BE
:10B0E000182A09D0182807D004F10C000560BFF316
:10B0F0005F8F2170002070BD0648074A801AC00883
:10B1000001EB0040054902F007FC032070BD000080
:10B110008C220020E44B0300E44B030014350300B1
:10B120007CB504460078082837D1607A58BB207A6D
:10B130001C4E4FF6FF75012811D0072802D00828B1
:10B140002BD121E0A08800F033FA0446A84224D095
:10B15000012100F08DFE2046FEF754FA1DE0A08884
:10B160006A46012104F0D6F868B90198007850B118
:10B17000A08800F01DFAA8420FD00122F178FDF757
:10B18000E5FB06F01BFB08E0F068012805D1BFF3E2
:10B190005F8F044900200C310860BDE87C4007F057
:10B1A0003FBB00008C22002010B50B48FEF77BFF50
:10B1B000094A083AD2E90434C018D2E9063244F107
:10B1C0000001C31A71EB020204D24FF080728018A2
:10B1D00041F1000110BD0000E023002010B5C0B215
:10B1E000FEF7F8F90446007803F0F8F801466078B5
:10B1F000012801D0012000E0002090EA010F08D0D2
:10B200000449D1E90401084303D1BDE8104007F027
:10B210007DB810BDC02300201CB5054AD2E902123A
:10B22000CDE900120022694604F03CFA1CBD000082
:10B230003C30030003484FF6FF718180012101700B
:10B24000002070479C2200202DE9FC41804600F040
:10B25000DBFA002403250127A0F57F412646FF39AC
:10B2600008D06A46082104F055F818B90198841DE1
:10B270008688056832462B4621464046B1DF0428C1
:10B2800004D0082804D00B2808D002E0112000E0E8
:10B290000020002F00D10B20BDE8FC810027A8076B
:10B2A00001D50125E6E7344303D0002426460325D3
:10B2B000E0E7064806494246401AC008012101EB72
:10B2C0000040044902F02CFBE5E70000EC4B0300D2
:10B2D000E44B0300DC3703002DE9FC41804600F01D
:10B2E00093FAA0F57F410646FF390ED001252A4684
:10B2F0006D1C0027ADB26B460821304604F054F8AF
:10B30000040006D0072C33D033E043F20200BDE83E
:10B31000FC81019903230A1D0B604046891DB2DFA1
:10B32000040004D00C2C09D0052C09D009E03246C9
:10B330000821104604F0B0F804461AE0012700E0A6
:10B3400000240821304604F09DF870B102F01EFF81
:10B350000346094809493246401AC008012101EB59
:10B360000040074902F0E3FA0324002FBFD100E0B8
:10B370000C242046CBE70000EC4B0300E44B030019
:10B380005C37030004488088A0F57F41FF3901D075
:10B3900006F01EBA704700009C2200200EB502A9DC
:10B3A000019100F031FA6A46012103F0B3FF08B1C0
:10B3B00000200EBD019800780EBD00002DE9F0417F
:10B3C00007464FF6FF761048B3DF78B102F0DEFE95
:10B3D00002460E480E49401AC008012101EB004008
:10B3E0000C4902F09DFA0320BDE8F081064C43F2BF
:10B3F0000305A41E324661883846AFDFA842F3D168
:10B400006088401C6080F5E79E220020EC4B030022
:10B41000E44B030010370300428800EB82020C3239
:10B420008A4201D9022070478188A1F57F42FF3A04
:10B4300006D0018821B18068401C01D000207047EF
:10B4400001207047884204D20068401C01D00120CE
:10B450007047002070473EB5027802230C46B3EBDC
:10B46000520F17D1B0F80110ADF80010C1788DF867
:10B4700002108188ADF8041080798DF8060002AAC8
:10B4800001A92046FCF76AFB032202A96846FCF7E3
:10B4900018F808B100203EBD01203EBD70B50D4634
:10B4A0000446142810D2FDF76DFA68B1084904EB80
:10B4B000840001EB4000D0F802102960C188A98007
:10B4C000007AA871002070BD43F2020070BD000038
:10B4D000EC2C002070B5018890B0102961D1011DBD
:10B4E0002C226846FBF7C2FF9DF804004FF6FF765A
:10B4F00003213446B1EB500F2BD004F091F89DF8A6
:10B5000004006D4640080ED001280CD0022820D13E
:10B5100018E00D99281D1131FCF766FA18B100BF2B
:10B52000BDF82C4015E00CAA0BA9072004F04CF83C
:10B530000028EED10DE00D99281D491CFFF78BFF67
:10B540000028EDD10CAA0BA9072004F03DF8002833
:10B55000F1D1BDF80000B44200EB8001124820F8A0
:10B56000114000EB41000199C0F80210BDF808102D
:10B57000C1809DF80A10017213D0BDF80000ADF82B
:10B580002E000020ADF83040084E8DF82C000BAD99
:10B59000044600BF56F8241028468847641C022C35
:10B5A000F8D310B070BD0000EC2C00205030030028
:10B5B0002DE9F0414FF6FF760546B04213D00B4F10
:10B5C000002400BF04EB840037F81000A84206D125
:10B5D0002046FDF7D7F910B12046BDE8F081641C84
:10B5E000A4B2142CEED33046F7E70000EC2C002078
:10B5F0002DE9F043CFB00E460746082903D90720AE
:10B600004FB0BDE8F08317B30EB350204D90E8461D
:10B61000CDF830D1B82114A8FBF741FF002043AA90
:10B620000DF15001C0EBC00303EB00130B4442F8D3
:10B630002030401C0828F5D32448254A0024801ACD
:10B64000C0080222C14602EB0045884636E00022CF
:10B65000114610466FDFD3E750216846FBF71FFF06
:10B6600037F814004DAB4BAA072103F0E1FF052882
:10B6700010D007280ED09DF81100400812D00128E4
:10B6800010D037F814202846124902F049F943F245
:10B690000220B5E737F8142028460F4902F040F998
:10B6A0000520ADE7C4EBC40000EB041101EB08007A
:10B6B000172209F10101FBF7D9FE641CB442CBD378
:10B6C000F2B2002143A86FDF9AE70000F44B0300B9
:10B6D000E44B030054380300DC3803003EB50C464D
:10B6E000054603F09DFF0BE0BDF80000A04207D027
:10B6F0002846029900F00EF810B1BDF800003EBDDA
:10B7000001AA6946072003F05FFF0028ECD14FF63D
:10B71000FF703EBD2DE9F0410C46054600F11107D2
:10B7200001F111061022491C401CFBF7CAFE48B962
:10B73000681C00F071FA28B1601C00F06DFA08B1C5
:10B74000012400E0002431463846FCF74DF93B78EF
:10B750000222B2EB530F0CD00321B1EB530F08D0F0
:10B760003378B2EB530F04D0B1EB530F01D001216A
:10B7700000E00021084201D18C4302D00120BDE845
:10B78000F0810020FBE7018811B9421892780AB1D4
:10B7900001207047491C0829F7D30020704710B5D5
:10B7A0000C460346FFF7EFFF00280AD018882188CF
:10B7B000884205D10822A11C981CFBF782FE08B123
:10B7C000002010BD012010BD142804D2024A00EB55
:10B7D000800022F810107047EC2C002070B5054650
:10B7E000FFF7E6FE0446284603F098FD002808D13E
:10B7F000142C06D2034B04EB84024FF6FF7123F89E
:10B80000121070BDEC2C002010B50446142808D28C
:10B81000FDF7B8F828B1044904EB840031F81000B2
:10B8200010BD4FF6FF7010BDEC2C00203EB5044655
:10B8300003F0F6FE0EE0019920464631FFF7AFFF18
:10B8400028B9019920462A31FFF7A9FF10B1BDF8A8
:10B8500008003EBD6A4602A9072003F0B5FE002895
:10B86000E9D14FF6FF703EBD7CB514460A000A4987
:10B87000097802D015688D4203D323B11D688D422B
:10B8800001D204207CBDCDE90043134602460348A3
:10B8900004F0A6F87CBD0000A8220020B42D0020F2
:10B8A00070B50C4606469AB010211E48FBF7F7FD0E
:10B8B0001D4800257EB374B30470620031461948F8
:10B8C000FBF7D4FD382102A81895FBF7E8FD009599
:10B8D00018AB02AA21463046019504F081F80028F1
:10B8E00017D110AA0DF10801C0EBC0030B4442F8B8
:10B8F0002030401C0828F7D30C480D49401AC008D6
:10B90000032101EB00400BA102F006F8E1B210A800
:10B910006EDF1AB070BDFFE70570002108466EDFCC
:10B92000F7E70000B42D0020A8220020F44B03000C
:10B93000E44B030043414C4C2073645F626C655FD1
:10B9400077686974656C6973745F534554000000CF
:10B9500010B50A4941600A4800F0D9FD58B902F013
:10B9600075FB07491C238C22087404488C39001F7E
:10B97000006800F032FD002010BD000024320300FA
:10B98000003300202DE9F0412D4F002520B17D60CE
:10B990004FF40640BDE8F0810879012258B1294EE4
:10B9A00001280CD0264C4FF002080834022820D081
:10B9B000032841D127E00A7103F004FB3AE000209C
:10B9C00000EB800116F82110022908D0401C80B23B
:10B9D0000228F5D33A707D6041F61D50DAE700EB9E
:10B9E000800006F8205006EB8000406803F0DCFA87
:10B9F00020E00D71A4F80480002301221248216880
:10BA000001F0F0F916E00D71206803F0CDFA0D4950
:10BA100023682831498801EB810206EB8201D1F8C5
:10BA200004C0C4F800C04B60A3880B81A4F8048054
:10BA300006F822500028ADD07D6048F20D60A9E7DD
:10BA4000282400202C320020C42400200146034872
:10BA500002888A4200D0002070470000402C00205D
:10BA60002DE9FC5F0E008346DDE90C47C6F10000BE
:10BA700098469246814600D40846012503E000BF5F
:10BA800090FBFAF06D1C5045FADAA84500D94546FE
:10BA900024B1002E01DB780700D5641EB80702D55B
:10BAA000B8F1000F0AD0F80708D13CB1A54205D281
:10BAB00020215846641EFDF769FDF6E7002E02DAE4
:10BAC0004E462D2102E0780703D52B215846FDF77D
:10BAD0005DFD07F0030002280BD1B8F1000F08D17B
:10BAE0003CB1A54205D230215846641EFDF74EFDFB
:10BAF000F6E7CDE90047434652463146584606F040
:10BB0000CDFDBDE8FC9F000070B50D460446006801
:10BB10004FF4887102F05AFB4FF49071206802F0E4
:10BB200055FB4FF49271206802F050FB4FF4A27164
:10BB3000206802F04BFB4FF4AC71206802F046FB2A
:10BB400020681249C0F804132068690740F30730E1
:10BB5000090E002804DB00F1E02080F8001405E065
:10BB600000F00F0000F1E02080F8141D206840F381
:10BB70000730002809DB00F01F0201219140400935
:10BB8000800000F1E020C0F8001170BD10034200F9
:10BB9000024600201268530713D502F00300012863
:10BBA00002D002280CD105E0C2F383100B68801C80
:10BBB000184404E00223086803EB92521044086022
:10BBC000012070470248007A002800D00120704709
:10BBD00000330020F0B58488A518944200D822468E
:10BBE000A41AC288D6189A4200D81346D21A4B8893
:10BBF0000788BB420CD34088834209D88888A0427A
:10BC000006D3A84204D8C888904201D3B04201D9D3
:10BC10000020F0BD0120F0BD0021425C0AB10120EE
:10BC20007047491C1029F8D300207047800701D0C5
:10BC300000207047012070470A4810B5807860B135
:10BC4000002401E0022C06D02046FDF7D7F9641C41
:10BC5000042CF7D310BD0324F6E7BDE81040FDF730
:10BC6000F1B900006C22002003480179C90702D015
:10BC70000078FDF759BB70476C2200201721018026
:10BC800041800021017141711B218171C171704797
:10BC90002DE9FE4F2E4F984692460D00814601D069
:10BCA00000260DE0684600F055FB6A460021484634
:10BCB00003F08CFA3878009E10B99DF8090098B10D
:10BCC00052463146484606F0FBF80446014600223B
:10BCD0004846FEF73DFF0D2C37D008DCA4B3082CF6
:10BCE00033D00B2C09D130E00520BDE8FE8F112C9C
:10BCF0001ED0A4F54050023827D0204602F046FA64
:10BD00000246144814494B46401AC008012101EB71
:10BD10000040124901F00BFE5FF00305B8F1000F7F
:10BD200004D0324621464846FEF75CFB2846DCE755
:10BD30002A46F9784846FCF709FE5246B978484643
:10BD4000FCF704FE0025E9E7FFE72546E6E70000EB
:10BD500038230020344C0300E44B03005C43030011
:10BD600070B50E460C49154604460978FCF7D6FD19
:10BD700000280FD0204603F0CFF900282A4631468C
:10BD8000204603D0BDE8704003F0CCB9BDE8704058
:10BD9000FEF788BA70BD00003023002070B5094D51
:10BDA0000646A978FCF7BAFD0446E9783046FCF768
:10BDB000B5FD014622463046BDE870400123FFF73D
:10BDC00067BF000038230020F0B585B00546002786
:10BDD00014216846FBF763FBA5F57F40ADF80250E0
:10BDE000FF3825D02846FFF72FFA040022D01B4841
:10BDF0001B49401AC6080B2C22D0112C1ED0A4F5CA
:10BE0000405002380ED0204602F0C0F90246012010
:10BE100000EB06402B46134901F089FD21462846D8
:10BE200005F084FC10483A4681782846FCF78EFDE0
:10BE300005B0F0BD0E208DF800000BE00127F1E702
:10BE40000F208DF80000022000EB06402A4607492B
:10BE500001F066FD6846FEF795FBE3E7E44B03005F
:10BE6000E44B0300E43503008C2200203836030045
:10BE70000A4602494978FCF769BD00008C2200207F
:10BE80002DE9F041002786B080463E46FFF724FAB0
:10BE9000040022D0112C22D01B481C49401AC5088E
:10BEA000862C1ED0A4F5405002380ED0204602F059
:10BEB0006DF90246012000EB0540434614A101F054
:10BEC00036FD2146404605F031FC39464046FFF735
:10BED000CFFF06B03046BDE8F0810126F5E7012727
:10BEE000F3E714221A496846FBF7C0FA0220ADF8BE
:10BEF000028000EB0540424616A101F011FD6846A4
:10BF0000FEF740FBE1E70000E44B0300E44B0300D5
:10BF10006773636D5F6C6F63616C5F64625F6361C5
:10BF20006368655F75706461746528292072657443
:10BF300075726E656420257320666F7220636F6E64
:10BF40006E5F68616E646C653A20256400000000D5
:10BF5000FC2F0300466C6173682066756C6C2E20A4
:10BF6000436F756C64206E6F742073746F726520FC
:10BF70006461746120666F7220636F6E6E5F6861CA
:10BF80006E646C653A202564000000002DE9FF41D5
:10BF90000026244800F0B8FA2248001F074600F0A7
:10BFA000B3FA214C2149A06800900D6800E0009888
:10BFB0006946284004EB80000C30FFF7E9FD0028BB
:10BFC000F5D101AA009901EA050304EB8303491C9A
:10BFD000DB6842F82030401C00910228F2D301981F
:10BFE00000F0030001280BD0022810D10198032192
:10BFF00001EB90500099BDF80A6001EB900005E05C
:10C000000198BDF80A60C0F38310084400903846D8
:10C0100000F077FA08B10098A06004B03046BDE89F
:10C02000F0810000D0380020B834002068240020BF
:10C03000002488B04FF48041204601F0EBFC08B1A9
:10C04000FBF752FE01F03EFBFBF76CFE08B1FBF77D
:10C050004BFE3B490320FDF71DF908B1FBF744FEF9
:10C0600069460020FDF712F808B1FBF73DFE9DF888
:10C070000000022861D0002501F0D6FD08B1FBF7D1
:10C0800033FE01F097FF08B1FBF72EFE6946012051
:10C09000009401F01FFE08B1FBF726FE684601F090
:10C0A00099FE08B1FBF720FEFEF786FD002125482A
:10C0B00000F070FB08B1FBF717FEFBF7CDFC05F0B5
:10C0C000CBFC1C216846FBF7EAF94FF47030CDE950
:10C0D00000404FF4A03002901B48059003261B48F7
:10C0E0008DF80C600690ADF80E408DF81040684653
:10C0F000FCF76AFB08B1FBF7F7FD03F03BFC1448C3
:10C100001449401AC00806EB0040044612A101F091
:10C1100003FC04F05BFA10B12846FBF7F3FC04F0D3
:10C1200055FA0246204615A101F0FAFB01F0D8FAB3
:10C130000028FBD101F08CFDF8E701259CE7000009
:10C140008191020028250020B9EA0200339A0200FA
:10C15000944C0300E44B0300426F6E64204D616E0B
:10C160006167656D656E74206578616D706C6520C2
:10C17000737461727465642E00000000414452457E
:10C180005353452053415645442025640000000088
:10C1900070B5144682880E4605462088111D01445C
:10C1A000921C994201D8FE2A01D90C2070BD521C64
:10C1B00032542088FF21401C80B2208031542088D6
:10C1C000401C80B220808119288806F052FA21880C
:10C1D000084480B22080AA8842B1A96841B13044A5
:10C1E000FBF744F92088A98808442080002070BD0E
:10C1F000072070BD2DE9F047C5881E1DB6FBF5F779
:10C200008946B6FBF5F1044605FB176C40791668C4
:10C210006843DDF820A0F718001F874200D9C61A2E
:10C22000166001E02468491E0029FBD1A5EB0C072C
:10C230008846B74216D818E004EB0C00001D09EB45
:10C240000803BAF1000F3A4602D00146184600E052
:10C250001946FBF70BF92468F61B4FF0000CB844A5
:10C26000B54201D9374600E02F46002EE4D1BDE8A3
:10C27000F087000030B5024651B101F0DFFB00212C
:10C28000074C08E034F821301568AB4202D1116048
:10C29000002030BD491C8142F4D3052030BD000090
:10C2A00000000000BFF35F8F00F016B9F8B50F462D
:10C2B000017814460546012901D1687830B12088FB
:10C2C000821C9A4232D8012902D006E00720F8BD2C
:10C2D00069780144891C994228D8181A801E86B2B0
:10C2E000ADF800602188B81C084469467DDF00284D
:10C2F000EDD12978022904D06878BDF80020904259
:10C3000005D3BDF80000B04201D809200AE008209A
:10C31000012905D16978B14202D8ADF8001001E0D9
:10C32000ADF80060BDF80010FE2901D90C20F8BD61
:10C330002288491CB9542188491C89B2218078542B
:10C340002088401C2080BDF8001008442080002078
:10C35000F8BD0000034A00219268C0E90021816015
:10C36000704700003823002070B586B00D460646A1
:10C37000144614216846FBF792F88DF80050ADF88A
:10C3800002402046FFF740FAADF804001422694647
:10C390003046FBF76BF806B070BD70B54FF6FF7511
:10C3A0000E46A84201D1002000E0401C84B208E003
:10C3B0002146304600F090F808B1204670BD641C5C
:10C3C000A4B2FF2CF4D9284670BD10B5FAF76DFF62
:10C3D00008B1002010BD112010BD10B531B1B2FB65
:10C3E000F3F403FB14241CB1092010BD0E2010BD72
:10C3F00001600021416081608281C381084610BDD7
:10C4000070B50C460546FAF705FF002802D02188D2
:10C410002868084470BD10B50A8849888A4203D14B
:10C42000FAF73AFF012010BD002010BD70B50C4690
:10C430000546FAF714FF002802D0618828680844EE
:10C4400070BD10B50A8849888A4203D1FAF7FEFE0A
:10C45000012010BD002010BD01F01F0301229A40F1
:10C46000D243490900EB8100114600F059B80A4651
:10C4700001F01F030121994010B552090C4600EB51
:10C48000820000F05DF8204000D0012010BD2DE9B1
:10C49000F04180460D460024481E012101EB501753
:10C4A00016E058F82400C04390FAA0F0B0FA80F0EB
:10C4B00020280CD200EB4416AE4208D2314640464A
:10C4C000FFF7D5FF0028ECD13046BDE8F081641CB1
:10C4D000A742E6D82846F8E74A0950F8220001F0BA
:10C4E0001F0201219140084000D00120704701F057
:10C4F0001F0301229A40490900EB8100114600F018
:10C5000029B8002100F017B8012100F023B801215B
:10C5100000F016B808B56A46FAF713FF009808BD90
:10C5200008B56A46FAF7F3FE009808BD08B56A46F2
:10C53000FAF707FF08BD08B56A46FAF7E8FE08BD36
:10C5400008B56A46FAF7D6FE08BD08B56A46FAF796
:10C55000C5FE08BD08B56A46FAF7CCFE009808BDCE
:10C5600008B56A46FAF7FAFE009808BD38B50446E1
:10C5700000258DF800506846FBF720FC21686268B2
:10C58000086890420ED9401E08600178238AE2684C
:10C5900001FB0325227A2168101AC0B20A7982426F
:10C5A00000D208719DF80000FBF72CFC284638BD2E
:10C5B00038B5054600208DF800000C466846FBF7AC
:10C5C000FDFBE868298A201AB0FBF1F12A6810689F
:10C5D000431C136001709DF80000FBF713FC38BD8D
:10C5E00010B530B1017A42680368891AC9B21A607D
:10C5F00006E00E2010BD03681A68541C1C60117000
:10C60000491EC9B2F7D2006800210171084610BD69
:10C61000C20800F007030120895C98400840704779
:10C6200028B190F82C20022A03D0082070470E2051
:10C63000704709B1002100E0012180F82C10002092
:10C640007047000070B58AB00D00044657D0E4B3BF
:10C6500001268DF8226041F61E00ADF82000286802
:10C6600060606868A060287A207305F1100004F10A
:10C67000200307C883E807004FF6FF70608022465A
:10C6800008A90120A8DF002837D129462046FEF757
:10C69000C3F9002831D120216846FAF700FF42F69D
:10C6A000A420ADF800009DF80D008DF8106040F05A
:10C6B00008008DF80D008020ADF8040000208DF8F2
:10C6C0000C608DF81100A87A00E018E08DF81200D7
:10C6D000E86828B19DF80E0040F001008DF80E00CA
:10C6E000208804F116026946FDF72AF8002804D1D3
:10C6F000E86830B1E18A00F007F90AB070BD0E2099
:10C70000FBE706480649401AC008032101EB004038
:10C7100004A101F001F90020EFE70000FC4B030049
:10C72000E44B0300496E697420636F6D706C65742F
:10C73000652E0000002909D0002807D00A4601888C
:10C74000512903D1011D104602F084BB704730B45B
:10C750004FF4C07328B121B11AB15488C58AAC42D4
:10C7600002D0184630BC70471378012B01D01BB1A2
:10C7700005E030BC02F0EABA90F82C300BB1002092
:10C78000F0E730BC02F01EBB10B1418000207047C2
:10C790000E20704710B560B10161172120F8021B0F
:10C7A00020F8021B1B2100F8021BFFF767FA00208C
:10C7B00010BD0E2010BD0000F0B5858893B00C466A
:10C7C000002D39D1018800263F4F24293BD006DCBB
:10C7D000102909D011290CD0232958D14FE03A292A
:10C7E0000BD0552953D129E00146204602F072F9B9
:10C7F0004DE0A01DFFF742FA49E02246408934F897
:10C80000061F814200D808466080172800D21720F2
:10C810006080106970B1607960B1D7E90001CDE93D
:10C820000301ADF80E506088ADF81000136903A93C
:10C83000104698476671267113B0F0BD0146204638
:10C8400002F09CF923E0011D2C2206A8FAF70EFE47
:10C85000BDF81800BDF81C2004EBC0014A73226922
:10C86000AAB1D7E90423CDE90423ADF81200487B2F
:10C870008DF814002269204604A9904707E0017A48
:10C88000207B884200D201462846FDF725FAA07A8F
:10C890000028D1D0E1882846A5DF012580B11128E4
:10C8A000CAD001F073FC02460848094913B0401A87
:10C8B000C00805EB0040BDE8F04006A101F030B82B
:10C8C000A672E572B8E7000058300300044C03007C
:10C8D000E44B030073645F626C655F67617474634B
:10C8E0005F65786368616E67655F6D74755F7265BB
:10C8F000717565737428292072657475726E65642C
:10C900002025732E0000000020B10278DE2A03D01B
:10C91000082070470E207047027B012A0CD0436923
:10C9200053B1038B43B149B100EB42025181017B0A
:10C93000491C01730020704704207047072070478E
:10C9400020B10278DE2A03D0082070470E207047FD
:10C9500041800020704710B5B8B1B1B10278DE2A2D
:10C9600015D00A684260DE2202704FF6FF724280E4
:10C970000022428102730272D1E90134C0E9053418
:10C98000C968C1610274104610BD0E2010BD082098
:10C9900010BD7FB50546002944D0002D42D008784F
:10C9A0000C46DE283ED1A8886188884202D1204604
:10C9B00005F094FF288801281DD00026022829D0E0
:10C9C000112848D051282DD1A8886288291D90426D
:10C9D00028D111F8020F022824D1087A042822D085
:10C9E000052827D006281DD104B02046BDE8704098
:10C9F000891C02F019B9297A2046012912D1A98887
:10CA0000428891420ED10121017204B0BDE870400C
:10CA100005F064BF287A012804D1A888618888427B
:10CA200000D126747FBD04B02046BDE87040891C4B
:10CA300002F04CB9009601960220029603968DF8FA
:10CA40000000ADF8046060886946B0DF0028E8D0D7
:10CA500061688847E5E7A88861888842E2D14FF697
:10CA6000FF706080DDE72DE9F0471E4691468A465B
:10CA7000040009D0B9F1000F06D02EB12078DE28CD
:10CA800004D00820BDE8F0870E20FBE700210D460A
:10CA9000606942181288EAB1891C89B24318891C5E
:10CAA00089B24718891C1B883F881FFA81F85245B4
:10CAB0000AD13188DD19A9420FD300EB080109EB37
:10CAC00003003A46FAF7D2FC08EB070081B2208B4C
:10CAD0008842DDD835800020D4E70420D2E700F179
